S00F00004C4344546573742E73726563A2
S113000071C0000086C0000084C0000082C00000EF
S113001080C000007EC000007CC000007AC00000E8
S113002078C0000076C0000074C0000072C00000F8
S113003070C000006EC000006CC000006AC0000008
S113004068C0000066C0000064C0000062C0000018
S113005060C000005EC000005CC000005AC0000028
S113006058C0000056C0000054C0000052C0000038
S113007050C000004EC000004CC000004AC0000048
S113008048C0000046C0000044C0000042C0000058
S113009040C000003EC000003CC000003AC0000068
S11300A038C0000036C0000034C0000032C0000078
S11300B030C000002EC000002CC000002AC0000088
S11300C028C0000026C0000024C0000022C0000098
S11300D020C000001EC000001CC000001AC00000A8
S11300E018C0000011241FBECFEFD1E2DEBFCDBF88
S11300F000E00CBF15E0A0E0B2E0E8EEFAE000E0BA
S11301000BBF02C007900D92A234B107D9F7EFD00C
S1130110E9C476CF169A0000169808951F93CF93DA
S1130120DF931F92CDB7DEB7662311F0149A01C096
S11301301498159891B19F6091B992B1192F107FBD
S1130140982F92959F70912B92B98983E3DF8981CF
S11301508F70812B82B9DEDF1F6012B90F90DF919F
S1130160CF911F9108951498159A81B1807F81B918
S1130170169A000090B116980000169A000020B15B
S11301802F70892F8295807F1698822B0895EBDF3C
S113019087FDFDCF00C000C0E6CFCF93C82FF7DFA7
S11301A060E08C2FCF91BACF611102C0805801C09A
S11301B08054F3CF81E0F1CFCF93C82FE8DFCA306A
S11301C041F4803410F080E001C080E48058CF9185
S11301D0E4CF61E08C2FCF91A1CFCF93DF93EC01DB
S11301E08991882311F0E8DFFBCFDF91CF91089547
S11301F0CF93C82F91B19F6791B98FE99FE0019781
S1130200F1F700C00000119A109A84DF81EE94E0A7
S11302100197F1F700C000007DDF95E19A95F1F7B1
S1130220000078DF85E18A95F1F70000109872DF0D
S113023095E19A95F1F7000088E2AFDF88E0ADDF41
S1130240B9DF86E0AADF8C2FCF91A7CFCF93DF93BE
S1130250CDB7DEB72A970FB6F894DEBF0FBECDBF79
S1130260892B19F460E175E002C069E175E0CE0103
S11302700196D4D39FDF62E275E0CE010196BAD332
S1130280ACDF2FE78AE196E0215080409040E1F70F
S113029000C000002A960FB6F894DEBF0FBECDBF93
S11302A0DF91CF9108952F923F92C10196DF2FEBFA
S11302B087E299E0215080409040E1F700C00000BF
S11302C0F101E05DFC4F118210823296118210829E
S11302D038971182108280D3F101E85DFC4F62E00F
S11302E070E00CD3918380833F902F900895CF9337
S11302F0DF93CDB7DEB7CD54D3400FB6F894DEBF4D
S11303000FBECDBF17B814B8FF24FA94F5B88EE029
S11303106FDF8CE093E0E4E0F2E0DE011E960190F2
S11303200D920197E1F7CF5CDC4F19821882C1531B
S1130330D340CD5CDC4F19821882C353D340C35DD4
S1130340DC4F19821882CD52D340C15DDC4F198233
S11303501882CF52D3408DE0E4E3F5E08E010F5FC5
S11303601F4FD80101900D928A95E1F7C75DDC4FCC
S113037019821882C952D340C55DDC4F1982188294
S1130380CB52D34089E090E0CB5DDC4F99838883E6
S1130390C552D340C95DDC4F19821882C752D3407D
S11303A08BE0E9E2F5E0DE01A65EBC4F01900D9220
S11303B08A95E1F717B8F8B8180175DF5CE3B52E34
S11303C065E3E62E63E0F62EEC0EFD1E24E0E20E5D
S11303D0F11C72E0C72ED12CEDDEC75DDC4F8881A5
S11303E09981C952D340892B19F089E195E002C063
S11303F080E195E0F2DE8FEB97E2A9E08150904036
S1130400A040E1F700C00000D5DE89E295E0E5DE1A
S113041061E080E0C9DEC55DDC4F28813981CB52C3
S1130420D340B29EC001B39E900D11240D96800F4F
S1130430911FD3DECA5BDC4F19830883C654D340B3
S1130440C85BDC4F19821882C854D340C75CDC4FA8
S1130450188219821A821B82C953D340C35CDC4FB1
S11304601882CD53D340C45BDC4F19821882CC541C
S1130470D340C65BDC4F19821882CA54D340CC5B8C
S1130480DC4F19821882C454D340CE5BDC4F1982EE
S11304901882C254D340C05CDC4F19821882C05405
S11304A0D340C25CDC4F19821882CE53D340C95C5E
S11304B0DC4F19821882C753D340CB5CDC4F1982BE
S11304C01882C553D34060E080E06EDE88248394B4
S11304D0912CAA24A394C45BDC4F28813981CC5489
S11304E0D340C65BDC4F88819981CA54D340232B07
S11304F061F1892BB9F1C85BDC4F88819981C854BB
S1130500D3401816190614F4019702C080E090E055
S1130510C85BDC4F99838883C854D340C45BDC4FE9
S113052019821882CC54D340C65BDC4F19821882DE
S1130530CA54D340CA5BDC4FE881F981C654D34026
S1130540EA5DFC4F608130DE19C0892BB9F486B1B5
S113055081708A2590E0C45BDC4F99838883CC54F6
S1130560D3400CC086B18170C65BDC4F8883CA540B
S1130570D340C55BDC4F1882CB54D340CC5BDC4FFB
S113058028813981C454D340CE5BDC4F8881998162
S1130590C254D340232BA9F1892B09F443C0C85B6F
S11305A0DC4F88819981C854D3408930910514F473
S11305B001960AC0CA5BDC4FE881F981C654D34076
S11305C0EC5DFC4F80819181C85BDC4F998388830B
S11305D0C854D340CC5BDC4F19821882C454D34036
S11305E0CE5BDC4F19821882C254D340CA5BDC4F05
S11305F0E881F981C654D340EA5DFC4F6081D4DDC3
S11306001EC0892BE1F486B186958A258170CC5B66
S1130610DC4F8883C454D340CB5BDC4F1882C55471
S1130620D3400DC086B186958170CE5BDC4F888344
S1130630C254D340CD5BDC4F1882C354D340C05C5A
S1130640DC4F28813981C054D340C25CDC4F88819F
S11306509981CE53D340232B09F451C0892B09F43B
S113066060C0CA5BDC4FE881F981C654D340C85BE3
S1130670DC4F88819981C854D340E80FF91FE75EA5
S1130680FC4F608170E0C701B5D1CA5BDC4F888143
S11306909981C654D340FC01E65DFC4F2081318131
S11306A0B29EF001B39EF00D11243D96E80FF91FA0
S11306B0DF010D900020E9F7CD01019760E08E1B6A
S11306C073DDC7018ADDCA5BDC4FE881F981C6545A
S11306D0D340EA5DFC4F6081C85BDC4F8881C8541D
S11306E0D34062DDC05CDC4F19821882C054D34011
S11306F0C25CDC4F19821882CE53D34020C0892BB0
S1130700F1F486B1869586958A258170C05CDC4FAC
S11307108883C054D340CF5BDC4F1882C154D3408C
S11307200EC086B182FB882780F9C25CDC4F8883C7
S1130730CE53D340C15CDC4F1882CF53D340C95C45
S1130740DC4F28813981C753D340CB5CDC4F88818F
S11307509981C553D340232B79F0892B11F1C95CBE
S1130760DC4F19821882C753D340CB5CDC4F19820B
S11307701882C553D34026C0892B11F586B18695BE
S1130780869586958A258170C95CDC4F8883C7531A
S1130790D340C85CDC4F1882C853D340812C912CC1
S11307A09ACE86B183FB882780F9CB5CDC4F8883A3
S11307B0C553D340CA5CDC4F1882C653D340EECF36
S11307C0892861F3CA5BDC4F88809980C654D34082
S11307D0F401E65DFC4F20813181B29EC001B39EDD
S11307E0900D11248B96B701880D991D0ED1F4013B
S11307F0E85DFC4F892B69F40190F081E02DEE0F48
S1130800FF1FE80DF91DE05DFC4F80819181019689
S11308100CC080819181880F991FF401E80FF91FA2
S1130820E45DFC4F80819181019791838083C35D56
S1130830DC4F88819981CD52D340039744F4C15D44
S1130840DC4F88819981CF52D34003978CF0B2DC7E
S113085062E275E089E195E0CDD0BFDCBFE72AE133
S113086086E0B15020408040E1F700C0000043C062
S1130870CF5CDC4F88819981C153D3408530910589
S1130880F4F4CD5CDC4F48815981C353D3404530E7
S1130890510594F4C55DDC4F28813981CB52D34096
S11308A02D30310580F0481759074CF0841795070F
S11308B019F48FEF9FEF05C081E090E002C080E063
S11308C090E0C4DC18C0C75DDC4F88819981C952AF
S11308D0D3400196B60112D0C75DDC4F998388835B
S11308E0C952D3402F5F3F4FC55DDC4F3983288306
S11308F0CB52D34071CD1801D6DC6ECD97FB072EB9
S113090016F4009406D077FD08D00BD007FC05D070
S11309103EF4909581959F4F0895709561957F4F12
S11309200895AA1BBB1B51E107C0AA1FBB1FA61732
S1130930B70710F0A61BB70B881F991F5A95A9F784
S113094080959095BC01CD0108958F929F92AF92AE
S1130950BF92CF92DF92EF92FF92CF93DF93EC019D
S1130960688179818A819B81611571058105910571
S113097021F464E279ED8BE597E02DE133EF41E07A
S113098050E053D049015A019B01AC01A7EAB1E4FC
S113099068D06B017C01ACEEB4EFA50194016DD07D
S11309A0DC01CB018C0D9D1DAE1DBF1DB7FF03C027
S11309B00197A109B04888839983AA83BB839F7751
S11309C0DF91CF91FF90EF90DF90CF90BF90AF90E9
S11309D09F908F900895B9CF80E092E0B6CFA0E0C9
S11309E0B0E08093000290930102A0930202B093BE
S11309F003020895FB01DC010D900020E9F7119733
S1130A0001900D920020E1F70895FB01DC018D9126
S1130A10019080190110D9F3990B0895FB01DC01B1
S1130A2001900D920020E1F70895052E97FB16F42E
S1130A3000940FD057FD05D024D007FC02D046F413
S1130A4008C050954095309521953F4F4F4F5F4FCB
S1130A50089590958095709561957F4F8F4F9F4F26
S1130A60089531D0A59F900DB49F900DA49F800D43
S1130A70911D11240895B7FFF4CFF3DF821B930B6C
S1130A800895A1E21A2EAA1BBB1BFD010DC0AA1FCB
S1130A90BB1FEE1FFF1FA217B307E407F50720F0E3
S1130AA0A21BB30BE40BF50B661F771F881F991F5E
S1130AB01A9469F760957095809590959B01AC01A7
S1130AC0BD01CF010895A29FB001B39FC001A39FB0
S1130AD0700D811D1124911DB29F700D811D112473
S10B0AE0911D0895F894FFCF65
S1130AE80100000036362F3131203D20000000007F
S1130AF800000000000000000000000000000000EA
S1130B0800003600000000000000000000000000A3
S1130B1800000000000000000000000000000000C9
S1130B2837372D3535203D20000000000000000037
S1130B380000000000000000000000000000323245
S1130B480000000000000000000000000000000099
S1130B58000000000000000000000000342A3520D6
S1130B683D2000000000000000000000000000001C
S1130B780000000000000000000032300000000007
S1130B880000000000000000000000000000000059
S1130B980000000000000000392B33203D20000035
S1130BA80000000000000000000000000000000039
S1130BB800000000000031320000000000000000C6
S1130BC80000000000000000000000000000000019
S1130BD80000000035352F352B35203D200000005E
S1130BE800000000000000000000000000000000F9
S1130BF80000313600000000000000000000000082
S1130C0800000000000000000000000000000000D8
S1130C1838312F332A35203D200000000000000021
S1130C280000000000000000000000000000313354
S1130C383500000000000000000000000000000073
S1130C48000000000000000000000000372A372AD6
S1130C58322D35203D000000000000000000000097
S1130C68000000000000000000003933000000000C
S1130C780000000000000000000000000000000068
S1130C88000000000000000032312F332A322A35D8
S1130C982F31302A33203D200000000000000000DE
S1130CA800000000000032310000000000000000D5
S1130CB80000000000000000000000000000000028
S1130CC800000000392B392B392D3237203D200004
S1130CD80000000000000000000000000000000008
S1130CE800003000000000000000000000000000C8
S1130CF800000000000000000000000000000000E8
S1130D08362A35203D2000000000000000000000C5
S1130D180000000000000000000000000000333064
S1130D2800000000000000000000000000000000B7
S1130D38000000000000000000000000322A3838DB
S1130D48203D20000000000000000000000000001A
S1130D5800000000000000000000313736000000E9
S1130D680000000000000000000000000000000077
S1130D78000000000000000031352A3135203D20F4
S1130D880000000000000000000000000000000057
S1130D9800000000000032323500000000000000AE
S1130DA80000000000000000000000000000000037
S1130DB8000000003130302F322F352F3130203DE4
S1130DC820000000000000000000000000000000F7
S1130DD800003100000000000000000000000000D6
S1130DE800000000000000000000000000000000F7
S1130DF8506C61796572203100506C61796572209C
S1130E0832002077696E732100303132333435363D
S1130E18373839004D617468204D61646E657373A9
S1050E280000C4
S9030000FC
