S00F00004C4344546573742E73726563A2
S113000071C0000086C0000084C0000082C00000EF
S113001080C000007EC000007CC000007AC00000E8
S113002078C0000076C0000074C0000072C00000F8
S113003070C000006EC000006CC000006AC0000008
S113004068C0000066C0000064C0000062C0000018
S113005060C000005EC000005CC000005AC0000028
S113006058C0000056C0000054C0000052C0000038
S113007050C000004EC000004CC000004AC0000048
S113008048C0000046C0000044C0000042C0000058
S113009040C000003EC000003CC000003AC0000068
S11300A038C0000036C0000034C0000032C0000078
S11300B030C000002EC000002CC000002AC0000088
S11300C028C0000026C0000024C0000022C0000098
S11300D020C000001EC000001CC000001AC00000A8
S11300E018C0000011241FBECFEFD1E2DEBFCDBF88
S11300F000E00CBF12E0A0E0B2E0E0E5F2E000E0D6
S11301000BBF02C007900D92AC30B107D9F798D05D
S11301109DC076CF169A0000169808951F93CF932A
S1130120DF931F92CDB7DEB7662311F0149A01C096
S11301301498159891B19F6091B992B1192F107FBD
S1130140982F92959F70912B92B98983E3DF8981CF
S11301508F70812B82B9DEDF1F6012B90F90DF919F
S1130160CF911F9108951498159A81B1807F81B918
S1130170169A000090B116980000169A000020B15B
S11301802F70892F8295807F1698822B0895EBDF3C
S113019087FDFDCF00C000C0E6CFCF93C82FF7DFA7
S11301A060E08C2FCF91BACF81E0F7CFCF93C82FE7
S11301B0EEDFCA3041F4803410F080E001C080E406
S11301C08058CF91EACF61E08C2FCF91A7CFCF9306
S11301D0DF93EC018991882311F0E8DFFBCFDF91F5
S11301E0CF910895CF93C82F91B19F6791B98FE9AB
S11301F09FE00197F1F700C00000119A109A8ADF7E
S113020081EE94E00197F1F700C0000083DF95E1EF
S11302109A95F1F700007EDF85E18A95F1F70000F9
S1130220109878DF95E19A95F1F7000088E2B5DF40
S113023088E0B3DFB9DF86E0B0DF8C2FCF91ADCF9C
S11302408CE0D0DF80E092E0C2DFFFCFF894FFCFF4
S10F025048656C6C6F20576F726C640082
S9030000FC
