S00F00004C4344546573742E73726563A2
S113000071C0000086C0000084C0000082C00000EF
S113001080C000007EC000007CC000007AC00000E8
S113002078C0000076C0000074C0000072C00000F8
S113003070C000006EC000006CC000006AC0000008
S113004068C0000066C0000064C0000062C0000018
S113005060C000005EC000005CC000005AC0000028
S113006058C0000056C0000054C0000052C0000038
S113007050C000004EC000004CC000004AC0000048
S113008048C0000046C0000044C0000042C0000058
S113009040C000003EC000003CC000003AC0000068
S11300A038C0000036C0000034C0000032C0000078
S11300B030C000002EC000002CC000002AC0000088
S11300C028C0000026C0000024C0000022C0000098
S11300D020C000001EC000001CC000001AC00000A8
S11300E018C0000011241FBECFEFD1E2DEBFCDBF88
S11300F000E00CBF15E0A0E0B2E0EAE0F1E100E0CE
S11301000BBF02C007900D92A838B107D9F7E1D010
S1130110FAC776CF169A0000169808951F93CF93C6
S1130120DF931F92CDB7DEB7662311F0149A01C096
S11301301498159891B19F6091B992B1192F107FBD
S1130140982F92959F70912B92B98983E3DF8981CF
S11301508F70812B82B9DEDF1F6012B90F90DF919F
S1130160CF911F9108951498159A81B1807F81B918
S1130170169A000090B116980000169A000020B15B
S11301802F70892F8295807F1698822B0895EBDF3C
S113019087FDFDCF00C000C0E6CFCF93C82FF7DFA7
S11301A060E08C2FCF91BACF611102C0805801C09A
S11301B08054F3CF81E0F1CFCF93C82FE8DFCA306A
S11301C041F4803410F080E001C080E48058CF9185
S11301D0E4CF61E08C2FCF91A1CFCF93DF93EC01DB
S11301E08991882311F0E8DFFBCFDF91CF91089547
S11301F0CF93C82F91B19F6791B98FE99FE0019781
S1130200F1F700C00000119A109A84DF81EE94E0A7
S11302100197F1F700C000007DDF95E19A95F1F7B1
S1130220000078DF85E18A95F1F70000109872DF0D
S113023095E19A95F1F7000088E2AFDF88E0ADDF41
S1130240B9DF86E0AADF8C2FCF91A7CFCF93DF93BE
S1130250EC01B0DFCD2B19F480E195E002C08EE112
S113026095E0BBDF2FE78AE196E021508040904083
S1130270E1F700C00000DF91CF9108952F923F92E3
S113028099DFC101AADF2FEB87E299E0215080407A
S11302909040E1F700C00000F101E05DFC4F1182E5
S11302A01082329611821082369711821082329611
S11302B011821082349711821082E8D3F101E85D33
S11302C0FC4F62E070E074D3918380833F902F9061
S11302D00895CF93DF93CDB7DEB7C055D3400FB6A3
S11302E0F894DEBF0FBECDBF17B814B81FEF15B911
S11302F08EE07EDF8CE093E0E4E0F2E0DE011E9627
S113030001900D920197E1F7CF5CDC4F19821882BE
S1130310C153D340CD5CDC4F19821882C353D34000
S1130320C35DDC4F19821882CD52D340C15DDC4FCE
S113033019821882CF52D3408DE0EBE7F5E09E019D
S11303402F5F3F4F7901D90101900D928A95E1F712
S1130350C75DDC4F19821882C952D340C55DDC4F9A
S113036019821882CB52D34089E090E0CB5DDC4FF8
S113037099838883C552D340C95DDC4F19821882A2
S1130380C752D3408BE0EEE3F5E0DE01A65EBC4F3E
S113039001900D928A95E1F717B818B919016EDF2B
S11303A065E0862E912C75E3A72E73E0B72EAC0E74
S11303B0BD1E34E0A30EB11C8E01005B1C4FE2E0B5
S11303C0CE2ED12CF7DEC75DDC4F88819981C952CE
S11303D0D340892B19F085E395E002C08CE295E0C7
S11303E0FCDE8FEB97E2A9E081509040A040E1F75A
S11303F000C00000DFDE8EE395E0EFDE61E080E028
S1130400D3DEC55DDC4F28813981CB52D3404CE328
S1130410429FC001439F900D11240D968E0D9F1D88
S1130420DCDEC85BDC4FF982E882C854D340C65B8B
S1130430DC4F19821882CA54D340C75CDC4F18823F
S113044019821A821B82C953D340C35CDC4F1882C1
S1130450CD53D340C25CDC4F19821882CE53D340B3
S1130460C25BDC4F19821882CE54D340C45BDC4F8C
S113047019821882CC54D340CA5BDC4F198218828B
S1130480C654D340CC5BDC4F19821882C454D34089
S1130490CE5BDC4F19821882C254D340C05CDC4F5F
S11304A019821882C054D340C95CDC4F1982188267
S11304B0C753D340CB5CDC4F19821882C553D34059
S11304C060E080E071DE66246394712C55245394BB
S11304D05CE3452EC25BDC4F28813981CE54D34086
S11304E0C45BDC4F88819981CC54D340232B61F1C8
S11304F0892BB9F1C65BDC4F88819981CA54D340FA
S11305001816190614F4019702C080E090E0C65B47
S1130510DC4F99838883CA54D340C25BDC4F198271
S11305201882CE54D340C45BDC4F19821882CC5459
S1130530D340C85BDC4FE881F981C854D340EA5DFD
S1130540FC4F608131DE19C0892BB9F486B181700A
S1130550852590E0C25BDC4F99838883CE54D340D9
S11305600CC086B18170C45BDC4F8883CC54D3400B
S1130570C35BDC4F1882CD54D340CA5BDC4F288167
S11305803981C654D340CC5BDC4F88819981C454F3
S1130590D340232BA9F1892B09F443C0C65BDC4F5C
S11305A088819981CA54D3408930910514F4019605
S11305B00AC0C85BDC4FE881F981C854D340EC5DC4
S11305C0FC4F80819181C65BDC4F99838883CA5438
S11305D0D340CA5BDC4F19821882C654D340CC5B2B
S11305E0DC4F19821882C454D340C85BDC4FE881C5
S11305F0F981C854D340EA5DFC4F6081D5DD1EC04B
S1130600892BE1F486B1869585258170CA5BDC4F20
S11306108883C654D340C95BDC4F1882C754D34087
S11306200DC086B186958170CC5BDC4F8883C45441
S1130630D340CB5BDC4F1882C554D340CE5BDC4F38
S113064028813981C254D340C05CDC4F88819981B0
S1130650C054D340232B09F461C0892B09F470C022
S1130660C25CDC4F88819981CE53D3409C012F5FBB
S11306703F4FC25CDC4F39832883CE53D340C85BE1
S1130680DC4F28813981C854D340B40191D1A5E30A
S1130690B3E0AC0FBD1FA80FB91FC65BDC4FE881E8
S11306A0F981CA54D340E20FF31FE75EFC4F808107
S11306B014968C93F901E65DFC4F80819181489EEC
S11306C0F001499EF00D11243D96E20FF31FDF0166
S11306D00D900020E9F7CD01019761E08E1B64DDE8
S11306E0C5017BDDC85BDC4FE881F981C854D34088
S11306F0EA5DFC4F6081C65BDC4F8881CA54D340FD
S113070053DDCE5BDC4F19821882C254D340C05CE7
S1130710DC4F19821882C054D34020C0892BF1F4D5
S113072086B18695869585258170CE5BDC4F88835E
S1130730C254D340CD5BDC4F1882C354D3400EC0A7
S113074086B182FB882780F9C05CDC4F8883C05463
S1130750D340CF5BDC4F1882C154D340C95CDC4F1B
S113076028813981C753D340CB5CDC4F8881998180
S1130770C553D340232B79F0892B11F1C95CDC4F8D
S113078019821882C753D340CB5CDC4F198218827C
S1130790C553D34026C0892B11F586B1869586951D
S11307A0869585258170C95CDC4F8883C753D34007
S11307B0C85CDC4F1882C853D340612C712C8ACE9C
S11307C086B183FB882780F9CB5CDC4F8883C553D3
S11307D0D340CA5CDC4F1882C653D340EECF67289F
S11307E061F3C85BDC4F68807980C854D340F3015F
S11307F0E65DFC4F208131814CE3429FC001439F61
S1130800900D11248B96B501860D971D4DD1F301E2
S1130810E85DFC4F0190F081E02D892B19F5EE0F76
S1130820FF1FE60DF71DE05DFC4F20813181C901FA
S113083001969183808384E090E0821B930B9F93C5
S11308408F9389E495E09F938F931F930F9335D1F2
S1130850B1DC8CE495E0C1DC61E080E0A5DC88E5F6
S113086095E025C0CF01880F991FF301E80FF91F08
S1130870E45DFC4F808191819C012F5F3F4F318368
S113088020839601281B390BC9019F932F9389E478
S113089095E09F938F931F930F930FD18BDC80E68A
S11308A095E09BDC61E080E07FDC8EE695E095DC02
S11308B0C80193DC0F900F900F900F900F900F9042
S11308C03FE78AE196E0315080409040E1F700C074
S11308D00000C35DDC4F88819981CD52D3400397DA
S11308E064F4C15DDC4F88819981CF52D340039772
S11308F0CCF066246394712C02C0612C712C5ADCF8
S1130900672819F48EE195E002C080E195E065DC8A
S1130910AFE7BAE126E0A150B0402040E1F700C0C3
S113092000002BC0CF5CDC4F88819981C153D34038
S113093085309105ACF4CD5CDC4F48815981C353BB
S1130940D340453051057CF4C55DDC4F28813981A5
S1130950CB52D3402D30310598F0481759073CF459
S113096080E090E002C081E090E070DC06C0841773
S11309709507C9F78FEF9FEFF8CF17017FDC22CDE2
S1130980C75DDC4F88819981C952D3400196B60175
S11309900FD0C75DDC4F99838883C952D3402F5F42
S11309A03F4FC55DDC4F39832883CB52D3400ACDFA
S11309B097FB072E16F4009406D077FD08D00BD0D1
S11309C007FC05D03EF4909581959F4F089570954E
S11309D061957F4F0895AA1BBB1B51E107C0AA1F55
S11309E0BB1FA617B70710F0A61BB70B881F991FCC
S11309F05A95A9F780959095BC01CD0108958F92E1
S1130A009F92AF92BF92CF92DF92EF92FF92CF93D9
S1130A10DF93EC01688179818A819B81611571057D
S1130A208105910521F464E279ED8BE597E02DE1F0
S1130A3033EF41E050E00AD349015A019B01AC0174
S1130A40A7EAB1E41FD36B017C01ACEEB4EFA501BE
S1130A50940124D3DC01CB018C0D9D1DAE1DBF1D63
S1130A60B7FF03C00197A109B04888839983AA837B
S1130A70BB839F77DF91CF91FF90EF90DF90CF9072
S1130A80BF90AF909F908F900895B9CF80E092E08F
S1130A90B6CFA0E0B0E08093000290930102A0934F
S1130AA00202B09303020895FB01DC018D910190D1
S1130AB080190110D9F3990B08950F931F93CF93C5
S1130AC0DF93CDB7DEB72E970FB6F894DEBF0FBE17
S1130AD0CDBF0E891F8986E08C831A8309838FEF2B
S1130AE09FE79E838D83AE01465E5F4F688D798D4F
S1130AF0CE01019611D02F813885F801E20FF31F42
S1130B0010822E960FB6F894DEBF0FBECDBFDF91D4
S1130B10CF911F910F9108952F923F924F925F9220
S1130B206F927F928F929F92AF92BF92CF92DF92F9
S1130B30EF92FF920F931F93CF93DF93CDB7DEB75E
S1130B402C970FB6F894DEBF0FBECDBF7C016B01AE
S1130B508A01FC0117821682838181FFB0C1CE0114
S1130B6001964C01F7019381F60193FD859193FF62
S1130B7081916F01882309F49EC1853239F493FD74
S1130B80859193FF81916F01853221F4B70190E043
S1130B90C7D1E8CF512C312C20E02032A0F48B3285
S1130BA069F030F4803259F0833269F420612CC04A
S1130BB08D3239F0803339F4216026C022602460FC
S1130BC023C0286021C027FD27C030ED380F3A30FC
S1130BD078F426FF06C0FAE05F9E300D1124532EF0
S1130BE013C08AE0389E300D1124332E20620CC0CD
S1130BF08E3221F426FD5FC1206406C08C3611F4C8
S1130C00206802C0883641F4F60193FD859193FF74
S1130C1081916F018111C1CF982F9F7D955493309D
S1130C2028F40C5F1F4FFFE3F9830DC0833631F0C6
S1130C30833771F0833509F057C021C0F8018081F2
S1130C4089830E5F1F4F44244394512C540114C0D4
S1130C503801F2E06F0E711CF801A080B18026FF0C
S1130C6003C0652D70E002C06FEF7FEFC5012C87D4
S1130C704CD12C0183012C852F77222E16C03801EC
S1130C80F2E06F0E711CF801A080B18026FF03C052
S1130C90652D70E002C06FEF7FEFC5012C872AD16C
S1130CA02C012C852068222E830123FC19C0832D5E
S1130CB090E048165906A0F4B70180E290E030D1E4
S1130CC03A94F5CFF50127FC859127FE81915F01C8
S1130CD0B70190E025D131103A94F1E04F1A510850
S1130CE04114510479F7DEC0843611F0893631F5A8
S1130CF0F80127FF07C060817181828193810C5FB5
S1130D001F4F08C060817181072E000C880B990B5E
S1130D100E5F1F4F2F76722E97FF09C09095809516
S1130D20709561957F4F8F4F9F4F2068722E2AE0F8
S1130D3030E0A4012DD1A82EA81843C0853729F48A
S1130D402F7EB22E2AE030E025C0F22FF97FBF2E8D
S1130D508F36C1F018F4883579F0ADC0803719F0BA
S1130D60883721F0A8C02F2F2061B22EB4FE0DC009
S1130D708B2D8460B82E09C024FF0AC09F2F966073
S1130D80B92E06C028E030E005C020E130E002C002
S1130D9020E132E0F801B7FE07C0608171818281F1
S1130DA093810C5F1F4F06C06081718180E090E0E9
S1130DB00E5F1F4FA401ECD0A82EA818FB2DFF77BF
S1130DC07F2E76FE0BC0372D3E7FA51450F474FEA3
S1130DD00AC072FC08C0372D3E7E05C0BA2C372DE0
S1130DE003C0BA2C01C0B52C34FF0DC0FE01EA0DBE
S1130DF0F11D8081803311F4397E09C032FF06C0B1
S1130E00B394B39404C0832F867809F0B39433FD6C
S1130E1012C030FF06C05A2CB31418F4530C5B18DC
S1130E20B32CB31460F4B70180E290E03C8778D02F
S1130E30B3943C85F6CFB31410F43B1801C0312CA5
S1130E4034FF11C0B70180E390E03C8769D03C8552
S1130E5032FF16C031FD03C088E790E002C088E588
S1130E6090E0B7010CC0832F867851F031FF02C0A7
S1130E708BE201C080E237FD8DE2B70190E050D0F3
S1130E80A51430F4B70180E390E04AD05A94F8CF27
S1130E90AA94F401EA0DF11D8081B70190E040D0DD
S1130EA0A110F6CF332009F45DCEB70180E290E0C3
S1130EB037D03A94F7CFF7018681978102C08FEF3C
S1130EC09FEF2C960FB6F894DEBF0FBECDBFDF9117
S1130ED0CF911F910F91FF90EF90DF90CF90BF9033
S1130EE0AF909F908F907F906F905F904F903F90C6
S1130EF02F900895FC010590615070400110D8F7BF
S1130F00809590958E0F9F1F0895FC01615070404D
S1130F1001900110D8F7809590958E0F9F1F08952A
S1130F200F931F93CF93DF93FB01238121FD03C014
S1130F308FEF9FEF28C022FF16C04681578124817E
S1130F4035814217530744F4A081B1819D012F5F7D
S1130F503F4F318320838C93268137812F5F3F4F0E
S1130F603783268310C0EB01092F182F0084F185E5
S1130F70E02D1995892BE1F68E819F8101969F833F
S1130F808E83812F902FDF91CF911F910F91089520
S1130F90FA01AA27283051F1203181F1E8946F93A6
S1130FA06E7F6E5F7F4F8F4F9F4FAF4FB1E03ED04C
S1130FB0B4E03CD0670F781F891F9A1FA11D680FEA
S1130FC0791F8A1F911DA11D6A0F711D811D911D1D
S1130FD0A11D20D009F468943F912AE0269F112492
S1130FE03019305D3193DEF6CF010895462F4770F6
S1130FF0405D4193B3E00FD0C9F7F6CF462F4F7051
S1131000405D4A3318F0495D31FD4052419302D0AE
S1131010A9F7EACFB4E0A695979587957795679554
S1131020BA95C9F700976105710508959B01AC0154
S11310300A2E06945795479537952795BA95C9F77B
S1131040620F731F841F951FA01D0895052E97FB23
S113105016F400940FD057FD05D024D007FC02D01D
S113106046F408C050954095309521953F4F4F4F19
S11310705F4F089590958095709561957F4F8F4F40
S11310809F4F089531D0A59F900DB49F900DA49FBC
S1131090800D911D11240895B7FFF4CFF3DF821B57
S11310A0930B0895A1E21A2EAA1BBB1BFD010DC0D0
S11310B0AA1FBB1FEE1FFF1FA217B307E407F50704
S11310C020F0A21BB30BE40BF50B661F771F881FE0
S11310D0991F1A9469F760957095809590959B0176
S11310E0AC01BD01CF010895A29FB001B39FC0011F
S11310F0A39F700D811D1124911DB29F700D811D40
S10D11001124911D0895F894FFCF07
S113110A0100000036362F3131203D200000000056
S113111A00000000000000000000000000000000C1
S113112A000036000000000000000000000000007B
S113113A00000000000000000000000000000000A1
S113114A37372D3535203D2000000000000000000F
S113115A000000000000000000000000000032321D
S113116A0000000000000000000000000000000071
S113117A000000000000000000000000342A3520AE
S113118A3D200000000000000000000000000000F4
S113119A00000000000000000000323000000000DF
S11311AA0000000000000000000000000000000031
S11311BA0000000000000000392B33203D2000000D
S11311CA0000000000000000000000000000000011
S11311DA000000000000313200000000000000009E
S11311EA00000000000000000000000000000000F1
S11311FA0000000035352F352B35203D2000000036
S113120A00000000000000000000000000000000D0
S113121A0000313600000000000000000000000059
S113122A00000000000000000000000000000000B0
S113123A38312F332A35203D2000000000000000F9
S113124A000000000000000000000000000031332C
S113125A350000000000000000000000000000004B
S113126A000000000000000000000000372A372AAE
S113127A322D35203D00000000000000000000006F
S113128A00000000000000000000393300000000E4
S113129A0000000000000000000000000000000040
S11312AA000000000000000032312F332A322A35B0
S11312BA2F31302A33203D200000000000000000B6
S11312CA00000000000032310000000000000000AD
S11312DA0000000000000000000000000000000000
S11312EA00000000392B392B392D3237203D2000DC
S11312FA00000000000000000000000000000000E0
S113130A000030000000000000000000000000009F
S113131A00000000000000000000000000000000BF
S113132A362A35203D20000000000000000000009D
S113133A000000000000000000000000000033303C
S113134A000000000000000000000000000000008F
S113135A000000000000000000000000322A3838B3
S113136A203D2000000000000000000000000000F2
S113137A00000000000000000000313736000000C1
S113138A000000000000000000000000000000004F
S113139A000000000000000031352A3135203D20CC
S11313AA000000000000000000000000000000002F
S11313BA0000000000003232350000000000000086
S11313CA000000000000000000000000000000000F
S11313DA000000003130302F322F352F3130203DBC
S11313EA20000000000000000000000000000000CF
S11313FA00003100000000000000000000000000AE
S113140A00000000000000000000000000000000CE
S113141A506C6179657220312077696E7300506C63
S113142A6179657220322077696E7300506C617934
S113143A6572203100506C61796572203200303156
S113144A3233343536373839002564004A6F6C6CC8
S113145A7920476F6F642100746F20676F3A200008
S113146A57726F6E6720416E7377657221006C69DB
S113147A766573206C6566743A20004D6174682041
S10B148A4D61646E657373008B
S9030000FC
