S00F00004C4344546573742E73726563A2
S113000071C0000079C0000077C0000075C0000016
S113001073C0000071C000006FC000006DC000001C
S11300206BC0000069C0000067C0000065C000002C
S113003063C0000061C000005FC000005DC000003C
S11300405BC0000059C0000057C0000055C000004C
S113005053C0000051C000004FC000004DC000005C
S11300604BC0000049C0000047C0000045C000006C
S113007043C0000041C000003FC000003DC000007C
S11300803BC0000039C0000037C0000035C000008C
S113009033C0000031C000002FC000002DC000009C
S11300A02BC0000029C0000027C0000025C00000AC
S11300B023C0000021C000001FC000001DC00000BC
S11300C01BC0000019C0000017C0000015C00000CC
S11300D013C0000011C000000FC000000DC00000DC
S11300E00BC0000011241FBECFEFD1E2DEBFCDBF95
S11300F000E00CBF7CD081C083CF169A0000169814
S113010008951F93CF93DF931F92CDB7DEB7662375
S113011011F0149A01C01498159891B19F6091B987
S113012092B1192F107F982F92959F70912B92B9AD
S11301308983E3DF89818F70812B82B9DEDF1F60C1
S113014012B90F90DF91CF911F9108951498159AC9
S113015081B1807F81B9169A000090B11698000091
S1130160169A000020B12F70892F8295807F1698EF
S1130170822B0895EBDF87FDFDCF00C000C0E6CFE2
S1130180CF93C82FF7DF60E08C2FCF91BACF81E0F7
S1130190F7CFCF93C82F91B19F6791B98FE99FE0B3
S11301A00197F1F700C00000119A109AA6DF81EEC2
S11301B094E00197F1F700C000009FDF95E19A9564
S11301C0F1F700009ADF85E18A95F1F700001098B5
S11301D094DF95E19A95F1F7000088E2D1DF88E099
S11301E0CFDFD5DF86E0CCDF8C2FCF91C9CF8CE079
S11101F0D0DF8FEF81B982B9FFCFF894FFCF33
S9030000FC
